:1000000002C1000031C100002FC100002DC100005D
:100010002BC1000029C1000027C1000025C100003C
:1000200023C1000021C100001FC100001DC100004C
:100030001BC1000019C1000017C1000015C100005C
:1000400013C1000011C100000FC100000DC100006C
:100050000BC1000009C1000007C100000C946E0E26
:1000600003C100000C94380E0C940E0EFDC000006D
:10007000FBC00000F9C00000F7C00000F5C00000A0
:10008000F3C00000F1C00000EFC00000EDC00000B0
:10009000EBC00000E9C00000E7C00000E5C00000C0
:1000A000E3C00000E1C00000DFC00000DDC00000D0
:1000B000DBC00000D9C00000D7C00000D5C00000E0
:1000C000D3C00000D1C00000CFC00000CDC00000F0
:1000D000CBC00000C9C00000C7C00000C5C0000000
:1000E000C3C00000000020002300260029002C00CF
:1000F0002F00320000010000030106010901000089
:100100002100240027002A002D00300033000101C7
:100110000000040107010A01000022002500280058
:100120002B002E00310034000201000005010801FF
:100130000B0105050505070508080808020202026B
:100140000A0A080804040404010101010101010173
:100150000303030303030303040707070C0C0C0C3E
:100160000C0C0C0C02020202060606060606060627
:100170000B0B0B0B0B0B0B0B0102102020080810B4
:100180002040102040800201020108040201010207
:1001900004081020408080402010080402018004E0
:1001A000020180402010080402010804020101023B
:1001B0000408102040800102040810204080000044
:1001C0000A0B02090C0D0E080703040100000000D1
:1001D000000000000000000000000000000000001F
:1001E00000000000000000000000121110000000DC
:1001F00000000000000000000000000000000000FF
:1002000000000000B80E11241FBECFEFD1E2DEBF08
:10021000CDBF00E00CBF25E0A2EAB2E001C01D9214
:10022000AB3EB207E1F712E0A0E0B2E0EEE5F9E2A2
:1002300000E00BBF02C007900D92A23AB107D9F7B8
:1002400011E0C3E0D1E000E006C021970109802F52
:10025000FE010E949412C230D10780E00807A9F77E
:100260000E94120F0C94AD14CBCEE9EBF4E0A08900
:10027000B18982E08C93A485B5851C92A685B7854B
:100280008FEC8C93108EA489B58986E08C93A2891B
:10029000B3898C9180618C93A289B3898C91886099
:1002A0008C93A289B3898C9180688C930288F3899E
:1002B000E02D80818F7D80830895AF92BF92CF9291
:1002C000DF92EF92FF920F931F93CF93DF936C0116
:1002D0007B018B01040F151FEB015E01AE18BF08F7
:1002E000C017D10759F06991D601ED91FC910190A9
:1002F000F081E02DC6011995892B79F7C501DF91B1
:10030000CF911F910F91FF90EF90DF90CF90BF9012
:10031000AF900895FC01538D448D252F30E0842F3C
:1003200090E0821B930B541710F0CF96089501971D
:100330000895FC01918D828D981761F0A28DAE0F0A
:10034000BF2FB11D5D968C91928D9F5F9F73928F91
:1003500090E008958FEF9FEF0895FC01918D828DBD
:10036000981731F0828DE80FF11D858D90E008958A
:100370008FEF9FEF0895FC01918D228D892F90E0E2
:10038000805C9F4F821B91098F739927089589EB99
:1003900094E0F1DF21E0892B09F420E0822F089519
:1003A000FC01A48DA80FB92FB11DA35ABF4F2C91EA
:1003B000848D90E001968F739927848FA689B789E1
:1003C0002C93A089B1898C91837080648C93938DD8
:1003D000848D981306C00288F389E02D80818F7D7B
:1003E00080830895EF92FF920F931F93CF93DF9333
:1003F000EC0181E0888F9B8D8C8D98131AC0E88961
:10040000F989808185FF15C09FB7F894EE89FF892F
:100410006083E889F98980818370806480839FBFCD
:1004200081E090E0DF91CF911F910F91FF90EF90CD
:100430000895F62E0B8D10E00F5F1F4F0F731127DD
:10044000E02E8C8D8E110BC00FB607FCFACFE88919
:10045000F989808185FFF5CFCE01A2DFF2CFEB8D48
:10046000EC0FFD2FF11DE35AFF4FF0829FB7F89478
:100470000B8FEA89FB8980818062D0CFCF93DF9395
:10048000EC01888D8823B1F0AA89BB89E889F989B4
:100490008C9185FD03C0808186FD0CC00FB607FCE2
:1004A000F7CF8C9185FFF2CF808185FFEDCFCE0114
:1004B00077DFEACFDF91CF91089580E090E0892B3C
:1004C00021F065DF81110E94000080E090E0892B1F
:1004D00049F080E090E0892B29F00E940000811112
:1004E0000E94000080E090E0892B49F080E090E0DD
:1004F000892B29F00E94000081110E94000080E0F9
:1005000090E0892B49F080E090E0892B29F00E944F
:10051000000081110C94000008958150823108F090
:100520005AC0E82FF0E08827E756FD4F8F4F0C9414
:100530009412B902BD02AB02B102B502EB02C002D5
:10054000C602CA02D002D402D802DE02E202EB02E4
:10055000E602EC02F002809180008F7780938000A9
:100560000895809180008F7DF9CF80918000877FF2
:10057000F5CF84B58F7784BD089584B58F7DFBCF8B
:100580008091B0008F778093B00008958091B00083
:100590008F7DF9CF809190008F77809390000895A0
:1005A000809190008F7DF9CF80919000877FF5CF6B
:1005B0008091A0008F778093A00008958091A00083
:1005C0008F7DF9CF8091A000877FF5CF80912001AA
:1005D0008F77809320010895809120018F7DF9CF3E
:1005E00080912001877FF5CF1F93CF93DF93282F32
:1005F00030E0F901E254FE4F8491F901E858FE4FD2
:10060000D491F901EE5CFE4FC491CC23A1F0162FDA
:10061000811183DFEC2FF0E0EE0FFF1FE85EFE4F4D
:10062000A591B4918FB7F894EC91111108C0D095B1
:10063000DE23DC938FBFDF91CF911F910895DE2BD6
:10064000F8CF3FB7F8948091AD049091AE04A0919B
:10065000AF04B091B00426B5A89B05C02F3F19F098
:100660000196A11DB11D3FBFBA2FA92F982F882732
:10067000BC01CD01620F711D811D911D42E0660F0D
:10068000771F881F991F4A95D1F708958F929F92DF
:10069000AF92BF92CF92DF92EF92FF92D2DF4B01E7
:1006A0005C0188EEC82E83E0D82EE12CF12CC9DF46
:1006B000681979098A099B09683E7340810591058B
:1006C000B0F321E0C21AD108E108F10888EE880EE3
:1006D00083E0981EA11CB11CC114D104E104F104F3
:1006E00031F7FF90EF90DF90CF90BF90AF909F9049
:1006F0008F9008952FB7F8946091A9047091AA047F
:100700008091AB049091AC042FBF08952091A20278
:10071000211109C021E02093A202309156052091B9
:1007200057053CBD2DBD60E0FC0184815DCF61E0DB
:10073000FC01848159DF8091A20281111092A202F2
:1007400008958EBD00000DB407FEFDCF8EB508954F
:100750008FEFF7CF0F931F93CF93DF93EC01CADF97
:100760008B01F6DF8F3F61F0C5DF601B710B6C17EB
:100770007D07B8F380E0DF91CF911F910F9108952D
:1007800081E0F9CFCF92DF92EF92FF920F931F9308
:10079000CF93DF93EC01162F69017A018E818823B4
:1007A00079F08F8198859C012F5F3F4F38872F8389
:1007B0008230924010F4CCDFF4CFCE01B8DF1E823D
:1007C000CE01A4DF8CE291E0C5DF812F8064B9DF28
:1007D00008E110E0D701C601002E04C0B695A79528
:1007E000979587950A94D2F7ACDF08501109083F16
:1007F0008FEF180779F78FEFA4DF10E0A9DF8A8762
:1008000087FF04C01F3F11F01F5FF8CFDF91CF912A
:100810001F910F91FF90EF90DF90CF900895CF92AE
:10082000DF92EF92FF920F93CF93DF93EC01690178
:1008300082E1411551056105710591F08B85833089
:1008400039F089E0440F551F661F771F8A95D1F74D
:100850009A01AB0168E1CE0195DF882319F084E0AD
:100860008D8326C08EEF6DDF76018EEFD81AF701EB
:1008700081917F0166DFEC14FD04C9F78FEF61DF22
:100880008FEF5FDF65DF8A878F71853069F4011133
:1008900013C0CE014CDF81E0DF91CF910F91FF902B
:1008A000EF90DF90CF90089581E18D83CE013FDFFF
:1008B000CE013DDF80E0F0CF88E592E04BDF811193
:1008C00002C085E1CDCF20E030E0A9016DE0CE018E
:1008D00059DF882311F084E1C3CF3ADF8111FBCFC8
:1008E000D8CF0F934091A4025091A5026091A60227
:1008F0007091A702411551056105710581F0082F1E
:1009000028EA32E090E080E08ADF882349F0109204
:10091000A4021092A5021092A6021092A70281E0F2
:100920000F9108950F93CF93C82F8091A302811147
:1009300005C0C1E08C2FCF910F9108954091000226
:100940005091010260910202709103020C2F28EA7B
:1009500032E090E080E063DF811102C0C0E0EACFC6
:10096000CC2339F381E0BDDF8823C1F31092A302C9
:10097000E1CFAF92BF92CF92DF92EF92FF921F939F
:10098000CF93DF936B017C01142F80910002909133
:100990000102A0910202B09103028C159D05AE05E3
:1009A000BF0509F4A3C081E0BDDF8823D1F18091A8
:1009B00006008823A1F08091000090910100A09191
:1009C0000200B0910300C816D906EA06FB0639F406
:1009D0008091070090910800892B09F449C0C092CA
:1009E0000000D0920100E0920200F092030080919A
:1009F0000B00A7019601833039F099E0220F331FD5
:100A0000441F551F9A95D1F761E190E080E0BADE6E
:100A1000882389F083E08093050090E080E087DE02
:100A200080E0DF91CF911F91FF90EF90DF90CF900A
:100A3000BF90AF9008955EDEEB018ADE80930A00DE
:100A40008F3F69F457DE6C1B7D0B6D327140A8F34C
:100A50008FE08093050090E080E069DEDECF8E3F7E
:100A6000B1F5109208001092070081E08093060013
:100A7000C8EAD2E088EAA82E84E0B82E69DE89931D
:100A8000AC16BD06D9F780910700909108009E5FD3
:100A9000909308008093070020910900222319F009
:100AA00081159240D8F0809106008823B9F080919A
:100AB0000700909108009C012F5F3F4F3093080082
:100AC000209307008230924020F442DEF0CF8DE088
:100AD000C0CF90E080E02BDE10920600C0920002B2
:100AE000D0920102E0920202F09203024091A3022E
:100AF000412B4093A30281E094CF4F925F926F927B
:100B00007F928F929F92AF92BF92CF92DF92EF929D
:100B1000FF920F931F93CF93DF93EC014230510567
:100B20006105710590F480E0DF91CF911F910F91E5
:100B3000FF90EF90DF90CF90BF90AF909F908F90FD
:100B40007F906F905F904F90089589859A85AB85CF
:100B5000BC850196A11DB11D84179507A607B7078F
:100B600010F3CB88DC88ED88FE888F89803109F00E
:100B700042C0BB27A72F962F852F480159012A0174
:100B80003B01C80ED91EEA1EFB1E80910002909107
:100B90000102A0910202B0910302C816D906EA062A
:100BA000FB0699F58F898031B9F5B301A20155276C
:100BB00066277727440F551F48555D4FFA019182EC
:100BC00080828091A30281608093A3028A8982300F
:100BD00080F08D819E81AF81B8858C0D9D1DAE1DED
:100BE000BF1D8093A4029093A502A093A602B09388
:100BF000A70281E099CFDB01CA01E7E0B695A7958E
:100C000097958795EA95D1F7B8CF40E0C701B6012F
:100C1000B0DE8111C7CF87CFB301A2014F7755272F
:100C200066277727440F551F440F551F48555D4FC2
:100C3000FA0180829182A282B382C3CF8F929F9267
:100C4000AF92BF92CF92DF92EF92FF920F931F93DA
:100C5000CF93DF93FC0181859285A385B4850196AE
:100C6000A11DB11D84179507A607B70770F480E092
:100C7000DF91CF911F910F91FF90EF90DF90CF9078
:100C8000BF90AF909F908F90089583889488A58897
:100C9000B6888789803189F5BB27A72F962F852FA6
:100CA000E9016A017B018F01BC01CD01680D791D4D
:100CB0008A1D9B1D8090000290900102A09002026C
:100CC000B090030286169706A806B90601F5F8014A
:100CD0008789803109F5DD24EE24FF24F601EE0F2B
:100CE000FF1FE855FD4F80819181B0E0A0E088832F
:100CF0009983AA83BB8381E0BBCFDB01CA01C7E034
:100D0000B695A79597958795CA95D1F7C9CF40E035
:100D100030DE8111DCCFABCFE894C7F8DD24EE24C0
:100D2000FF24F601EE0FFF1FEE0FFF1FE855FD4FEA
:100D300080819181A281B381BF70D9CF8F929F9220
:100D4000AF92BF92CF92DF92EF92FF920F931F93D9
:100D5000CF93DF93EC018D8181110EC080E0DF9194
:100D6000CF911F910F91FF90EF90DF90CF90BF90A8
:100D7000AF909F908F9008950B891C892D893E8993
:100D8000041715072607370748F34A015B0182302D
:100D900031F48A869B86AC86BD8681E0E0CF8114E3
:100DA0009104A104B10449F41E821F821886198699
:100DB0001A861B861C861D86F0CF0A851B852C850E
:100DC0003D85EB8DFC8D858590E00996B901A801E4
:100DD0004150510961097109082E04C07695679543
:100DE000579547950A94D2F775016401E1E0CE1A50
:100DF000D108E108F10804C0F694E794D794C794A9
:100E00008A95D2F7C416D506E606F70620F0012B20
:100E1000022B032B09F58F89988DA98DBA8D8E83AE
:100E20009F83A887B9878E010A5F1F4FC114D10421
:100E3000E104F10409F4ADCF4E815F8168857985C5
:100E400098018B8D9C8DFADE91E0C91AD108E108DA
:100E5000F1088111EBCF82CFC41AD50AE60AF70A4E
:100E6000E2CF3F924F925F926F927F928F929F92CA
:100E7000AF92BF92CF92DF92EF92FF920F931F93A8
:100E8000CF93DF93CDB7DEB72C970FB6F894DEBFC4
:100E90000FBECDBF5C01DC015B968D909C905C9792
:100EA00016964D905D906D907C9019974114510469
:100EB0006104710409F467C0BFEF4B1A5B0A6B0A47
:100EC0007B0A312CF40181859285A385B4859C0130
:100ED000AD012F5F3F4F4F4F5F4F29873A874B87B9
:100EE0005C87730162011D821E821F821886F401D5
:100EF00081859285A385B4852D813E814F8158855A
:100F0000281739074A075B0708F054C089859A8576
:100F1000AB85BC858C159D05AE05BF0550F482E000
:100F2000C82ED12CE12CF12C92E0492E512C612CB1
:100F3000712C9E012F5F3F4FB701A601C4017EDED9
:100F40008823C1F189819A81AB81BC81892B8A2B4D
:100F50008B2B09F1260137019FEF491A590A690ABB
:100F6000790A2D813E814F8158852F5F3F4F4F4F2A
:100F70005F4F2D833E834F8358873FEFC31AD30AB9
:100F8000E30AF30AB4CFF401408051806280738099
:100F90003324339497CFC414D504E604F70409F737
:100FA0000FEF1FEF2FEF3FE0B701A601C401A5DD52
:100FB000811119C080E02C960FB6F894DEBF0FBEE9
:100FC000CDBFDF91CF911F910F91FF90EF90DF90F8
:100FD000CF90BF90AF909F908F907F906F905F90D9
:100FE0004F903F900895D50116964D915D916D916A
:100FF0007C911997411551056105710531F09701F3
:101000008601C4017ADD8823A9F2D5011696CD9216
:10101000DD92ED92FC921997332051F0D701C60171
:101020000196A11DB11DF40180839183A283B38336
:10103000F5018789908DA18DB28D892B8A2B8B2B01
:1010400039F48481C78AD08EE18EF28E80688483E1
:10105000F50184818062848381E0ADCF1F93CF93BB
:10106000DF93EC01162F8C8187FF29C06E857F8569
:101070008889998941E07DDC882359F1EA8980E2F9
:10108000E89FF0011124E855FD4F309711F18D8153
:10109000823040F48B899C89AD89BE89848F958F7D
:1010A000A68FB78F8F89988D938F828F8F89988D18
:1010B000A98DBA8DB58BA48B8C818F778C83111100
:1010C00003C08C818F7E8C83812FDF91CF911F9104
:1010D00029CC80E0DF91CF911F9108951F93CF938A
:1010E000DF93EC018D81813031F090E080E0DF9181
:1010F000CF911F9108958C8181FFF7CF82FD17C09A
:1011000090E080E003DB24DB182F90E080E00FDB31
:101110001F3F59F78C8185FF1CC08D81882319F0F2
:1011200060E0CE019BDF8C818F7D8C83DECF4B898D
:101130005C896D897E898A859B85AC85BD85841790
:101140009507A607B707E1F2CE01F8DD8111D8CFE8
:10115000CCCF4091A4025091A5026091A60270915B
:10116000A702452B462B472B19F080E0BADBBDCFF9
:1011700080618C832A853B85317080E092E0821B00
:10118000930BB5CF9F92AF92BF92CF92DF92EF9227
:10119000FF920F931F93CF93DF9300D01F921F9264
:1011A000CDB7DEB78C016D83DC0115968C91159758
:1011B000813009F0B7C014968C9181FFB3C082FDD5
:1011C0009EC0D8015B96ED91FC915C971A96AD900C
:1011D000BD90CD90DC901D9794809A94B601A501A6
:1011E00089E076956795579547958A95D1F794222A
:1011F000B1E0BB22992009F49DC0D8015B96ED9126
:10120000FC915C971696CD90DD90ED90FC9019972F
:10121000B2E0CB1AD108E108F108858504C0CC0CF6
:10122000DD1CEE1CFF1C8A95D2F746855785608928
:101230007189C40ED51EE61EF71EC90CD11CE11C17
:10124000F11CA114B10409F004C1F80142855385D1
:101250006485758583899489A589B6894817590756
:101260006A077B0708F4F5C081E05CDB882309F49A
:1012700059C0C0920002D0920102E0920202F092A4
:1012800003028091A30281608093A302F501E855D7
:10129000FD4F8D818083F80182859385A485B58576
:1012A0000196A11DB11D82879387A487B5874389C5
:1012B000548965897689481759076A077B0738F486
:1012C0002481838B948BA58BB68B20682483D801D3
:1012D00014968C9183FD9BC081E090E00F900F905D
:1012E0000F900F900F90DF91CF911F910F91FF9072
:1012F000EF90DF90CF90BF90AF909F900895F8014E
:10130000438954896589768982859385A485B585C5
:10131000481759076A077B0709F453CFC8010EDD48
:1013200081114FCF81E090E0D80113969C938E936A
:10133000129747C0D80116964D915D916D917C91A1
:101340001997A114B10409F06DC04115510561054B
:10135000710581F557968D919D910D90BC91A02DB1
:101360000097A105B10509F04CC0C8017ADD8823BA
:10137000C9F2D8015B96ED91FC915C971696CD90E1
:10138000DD90ED90FC901997B2E0CB1AD108E108FE
:10139000F108858504C0CC0CDD1CEE1CFF1C8A9571
:1013A000D2F74685578560897189C40ED51EE61E21
:1013B000F71E4BCF9E012F5F3F4FCF013FDC8111C6
:1013C00003C090E080E08ACF89819A81AB81BC81A3
:1013D000F801238D348DF901278948EF5FEF60E034
:1013E00070E0203121F048EF5FEF6FEF7FE084176E
:1013F0009507A607B70728F0C80133DD8111FDCE98
:1014000091CFF80186839783A087B187F6CEF80144
:101410008581882309F486CF61E0C8011FDE811130
:101420005BCF80CF6A017B01B2E0CB1AD108E10823
:10143000F108858504C0CC0CDD1CEE1CFF1C8A95D0
:10144000D2F74685578560897189C40ED51EE61E80
:10145000F71E41E0C701B6018CDA811117CF62CFC8
:101460000895FC0101900020E9F73197AF01481B76
:10147000590BBC0189EB94E00C945D01CF93DF9391
:10148000FC01448155816081718189EB94E00E9467
:101490005D01EC018EE292E0E4DF8C0F9D1FDF9195
:1014A000CF9108958F929F92AF92BF920F931F9307
:1014B000CF93DF93CDB7DEB7A1970FB6F894DEBF19
:1014C0000FBECDBF19A2423008F44AE08E010F5D75
:1014D0001F4F842E912CB12CA12CA50194010E94A8
:1014E0007212E62FB901CA01EA30ECF4E05DD801CE
:1014F000EE938D01232B242B252B79F790E080E0B0
:10150000109711F0CD01ADDFA1960FB6F894DEBFB4
:101510000FBECDBFDF91CF911F910F91BF90AF90C4
:101520009F908F900895E95CE2CFEF92FF920F9326
:101530001F93CF93DF9300D01F92CDB7DEB789EB17
:1015400094E00E94990189EB94E00E9499018E0138
:101550000F5F1F4F78018A3341F0F80181938F01AB
:1015600089EB94E00E949901F6CFC70142D7182F6A
:1015700089EB94E00E9499018053990B8230910588
:1015800018F4682F812F30D889EB94E00E949901DC
:101590008A3011F08D30C1F789EB94E00E94AD01E3
:1015A0008A3021F489EB94E00E9499010F900F900A
:1015B0000F900F90DF91CF911F910F91FF90EF90BF
:1015C00008950F931F93CF93DF93EC018881998146
:1015D000009759F02A813B812617370730F081E0C8
:1015E000DF91CF911F910F9108958B016F5F7F4F16
:1015F0000E94C113009759F0998388831B830A8343
:101600002C813D81232B59F7FC011082E8CF80E02B
:10161000E7CFEF92FF920F931F93CF93DF93611564
:10162000710541F480E0DF91CF911F910F91FF9000
:10163000EF90089541155105A9F07B01EC010C8153
:101640001D81040F151FB801BCDF882359F32881C1
:1016500039818C819D81B701820F931F0E94A6144E
:101660001D830C8381E0DFCFCF93DF93EC01888172
:101670009981009709F0FCD7198218821D821C827B
:101680001B821A82DF91CF910895CF93DF93EC01F3
:10169000FB014481558160817181BBDF811102C0F2
:1016A000CE01E2DFCE01DF91CF910895EF92FF925C
:1016B0000F931F93CF93DF93EC017B018A01BA0153
:1016C00080DF81110AC0CE01CFDFCE01DF91CF9143
:1016D0001F910F91FF90EF9008951D830C83B70128
:1016E000888199810E94A614F0CFEF92FF920F9308
:1016F0001F93CF93DF93CDB7DEB761970FB6F89402
:10170000DEBF0FBECDBF8C01CB01F801118210826C
:1017100013821282158214824AE09E012F5F3F4F8E
:101720007901B901B6D6F70101900020E9F73197A8
:10173000AF014E195F09B701C801B8DF61960FB656
:10174000F894DEBF0FBECDBFDF91CF911F910F91F7
:10175000FF90EF900895CF93DF93EC01FB01861784
:10176000970741F0608171816115710539F04481FD
:1017700055819CDFCE01DF91CF91089575DFFACFBF
:10178000CF93DF93EC0168831A8219821C821B823B
:101790001E821D82BA010196DEDF888190E0FC0185
:1017A000E858FE4F24918E5C9E4FFC018491882363
:1017B000C1F090E0880F991FFC01E250FF4FC591E6
:1017C000D491FC01E85EFE4FA591B4919FB7F894C7
:1017D0008881E22FE0958E2388838C91E823EC9317
:1017E0009FBFDF91CF910895FC0111821082138277
:1017F000128215821482FB0101900020E9F73197D3
:10180000AF01461B570B52CFFC018081918100979D
:1018100009F02EC708956F927F928F929F92AF9298
:10182000BF92CF92DF92EF92FF920F931F93CF93CD
:10183000DF93DC011896CD91DC910E811F818C80A5
:101840009D8080E00815190571F15A016B0186E051
:1018500090E072D67C01FC01B182A08213821282D8
:10186000D582C482A880B980D501ED91FC91848194
:1018700095818C159D0548F50F5F1F4F80169106C9
:1018800088F084E090E058D6FC01F182E082138277
:101890001282A114B104B1F49B838A83F983E88393
:1018A0001F830E8381E0DF91CF911F910F91FF90F5
:1018B000EF90DF90CF90BF90AF909F908F907F90F0
:1018C0006F900895B382A282E9CF6A807B80D301B2
:1018D0008D919C91DC0114968D919C91C816D9062E
:1018E000E0F40F5F1F4F80169106E0F284E090E075
:1018F00023D6FC01F182E08213821282AB2829F404
:10190000998388839B838A83CBCFD30113969C933F
:101910008E931297F7CFE92FF82F3097A9F0928185
:10192000838124813581C216D306A8F3D70112968C
:101930009C93129713968C93F382E2828E819F81FF
:1019400001969F838E83AECFAECFEF92FF920F931F
:101950001F93CF93DF93EC010E811F810F5F1F4F09
:101960008C819D818017910700F17B0184E090E0DC
:10197000E3D5FC01F182E082138212822881398151
:10198000232B71F4998388839B838A831F830E831F
:1019900081E0DF91CF911F910F91FF90EF9008951B
:1019A000EA81FB8193838283EFCF80E0F2CF4F9275
:1019B0005F926F927F928F929F92AF92BF92CF92DF
:1019C000DF92EF92FF920F931F93CF93DF93CDB7E8
:1019D000DEB7A4970FB6F894DEBF0FBECDBF7C0173
:1019E000DC0114968D909C90D401ED91FC91309780
:1019F00021F00280F381E02DFACFF701A280B380BD
:101A0000D50112968C9112978823B1F0CD90DC907D
:101A100086E090E091D58C018EE092E0F801918310
:101A2000808395828482B382A2820E947A03685462
:101A3000744FA801C601EFDED7011496ED91FC9119
:101A400066817781CE01439650DE61E372E08E01BC
:101A50000F5F1F4FC801C8DEBE016D5E7F4FC8011A
:101A600014DE0CDDC801D0DECE014396CDDED701F9
:101A70001496ED91FC91A080B180A114B10409F4F9
:101A800099C0F501C080D1800E947A032B013C01EE
:101A9000D6012C9130E0F901E254FE4F8491F90116
:101AA000E858FE4F9490F901EE5CFE4F8490882038
:101AB00009F47DC081110E948D02E82DF0E0EE0F47
:101AC000FF1FEC51FF4FA591B491EC919E2281E054
:101AD00090E009F480E018A21F8E1AA219A21CA29D
:101AE0001BA24AE0B801A2D4F80101900020E9F756
:101AF0003197AF01401B510BB801CE014F96D6DD97
:101B00001C8A1B8A1E8A1D8A188E1F8AB6016F5F67
:101B10007F4FCE0143961FDE1A8E198E1C8E1B8EB0
:101B20001E8E1D8EBE016D5E7F4FCE01499613DE67
:101B300042E050E061E472E0CE0149966ADD811135
:101B400003C0CE01499690DDBE01615E7F4FCE019C
:101B500049969BDD6C0142E050E064E472E059DD9F
:101B6000811102C0C60180DD2AE0A801C301B201D3
:101B70006FD4F80101900020E9F73197AF01401BC5
:101B8000510BB801C60145DD811102C0C6016CDDF3
:101B9000C60174DCCE01499637DECE01439634DEB1
:101BA000CE014F9631DEF501A280B38066CF80E092
:101BB00090E091CFD7011296ED91FC910190F081C8
:101BC000E02D66817781CE0143968FDD67E472E078
:101BD000C8010ADEBE016D5E7F4FC80156DD4EDCD6
:101BE000C80112DECE0143960FDE0E944603A49682
:101BF0000FB6F894DEBF0FBECDBFDF91CF911F911E
:101C00000F91FF90EF90DF90CF90BF90AF909F909B
:101C10008F907F906F905F904F9008951F920F92DA
:101C20000FB60F9211240BB60F922F933F934F9341
:101C30005F936F937F938F939F93AF93BF93EF9334
:101C4000FF9389EB94E00E94D001FF91EF91BF9147
:101C5000AF919F918F917F916F915F914F913F9144
:101C60002F910F900BBE0F900FBE0F901F901895E5
:101C70001F920F920FB60F9211240BB60F922F9353
:101C80008F939F93EF93FF93E091C904F091CA045F
:101C90008081E091CF04F091D00482FD1DC090813D
:101CA0008091D2048F5F8F732091D304821741F00B
:101CB000E091D204F0E0E754FB4F958F8093D2047B
:101CC000FF91EF919F918F912F910F900BBE0F90ED
:101CD0000FBE0F901F9018958081F2CF1F920F9228
:101CE0000FB60F9211242F933F938F939F93AF932F
:101CF000BF938091A9049091AA04A091AB04B091E4
:101D0000AC043091A80423E0230F2D3758F5019639
:101D1000A11DB11D2093A8048093A9049093AA0447
:101D2000A093AB04B093AC048091AD049091AE0449
:101D3000A091AF04B091B0040196A11DB11D809394
:101D4000AD049093AE04A093AF04B093B004BF91E0
:101D5000AF919F918F913F912F910F900FBE0F9058
:101D60001F90189526E8230F0296A11DB11DD2CF12
:101D7000E9EBF4E01382128288EE93E0A0E0B0E099
:101D800084839583A683B78384E192E091838083E3
:101D900085EC90E09587848784EC90E09787868730
:101DA00080EC90E0918B808B81EC90E0938B828B28
:101DB00082EC90E0958B848B86EC90E0978B868B01
:101DC000118E128E138E148EE6E5F5E080E5808389
:101DD0001182E8E5F5E0158216821186138682E00D
:101DE00090E0A0E0B0E084879587A687B78713A22C
:101DF00015A614A686E292E093A782A717A6E1EAA9
:101E0000F5E01682178210861186128613861486D4
:101E1000158616861786108A118A128A138A148AE2
:101E2000158A0895CF93DF93CDB7DEB72C970FB601
:101E3000F894DEBF0FBECDBF789484B5826084BDB8
:101E400084B5816084BD85B5826085BD85B58160BE
:101E500085BD80916E00816080936E00109281003C
:101E600080918100826080938100809181008160F7
:101E700080938100809180008160809380008091B8
:101E8000B10084608093B1008091B0008160809344
:101E9000B0008091910082608093910080919100C8
:101EA0008160809391008091900081608093900088
:101EB0008091A10082608093A1008091A100816047
:101EC0008093A1008091A00081608093A000809108
:101ED00021018260809321018091210181608093A2
:101EE00021018091200181608093200180917A00FE
:101EF000846080937A0080917A00826080937A0077
:101F000080917A00816080937A0080917A00806865
:101F100080937A001092C1001092E3051092E405BC
:101F20001092E5051092E6051092A3051092A40503
:101F30001092A5051092A6050E947A036B017C0100
:101F40004B015C0128EB820E2BE0921EA11CB11C00
:101F50000E947A036C157D058E059F0528F0861674
:101F60009706A806B906A0F70E9446030E9435010D
:101F70000E947A036093A3057093A4058093A5053E
:101F80009093A60587E592E06CDA0E947A036B01D4
:101F90007C014B015C013AE0830E911CA11CB11C39
:101FA0000E947A036C157D058E059F0528F0861624
:101FB0009706A806B906A0F7BB24B394B092B7055C
:101FC0000E947A036093A3057093A4058093A505EE
:101FD0009093A60588E692E044DA0E94350188E0F5
:101FE00090E0AAD28C01DC0111961C921E921396ED
:101FF0001C921E9212978FE090E015969C938E9300
:10200000149717961C921E9216971093B40400937F
:10201000B30483E090E090D26C018AE090E08CD22F
:102020007C01FC01118210821382128215821482BB
:102030001782168288E090E07FD2FC011182108224
:102040001382128217821682D70119969C938E935F
:10205000189784E190E095838483F601F182E08211
:10206000B282D092B204C092B1046FE672E0CE01A7
:102070000796BADB6AE772E0CE010196B5DB87E02E
:1020800090E05AD27C01AE014F5F5F4F68E078DB91
:10209000B701C8015ADCCE010196B6DB63E872E0F5
:1020A000CE010196A1DB87E090E046D27C01AE0133
:1020B0004F5F5F4F69E064DBB701C80146DCCE01CA
:1020C0000196A2DBD601ED90FC9086E090E034D240
:1020D000FC018EE092E09183808315830483D38298
:1020E000C282AF0168EB7BE0C70195DBCE010796AA
:1020F0008BDB84EF482E55245394612C712C0E9465
:102100007A03672B682B692B09F4E1C00E947A03DC
:102110000091B5041091B6042091B7043091B80431
:10212000601771078207930708F4FAC00091B5049D
:102130001091B6042091B7043091B8046B017C0172
:10214000C01AD10AE20AF30A970186010A3F110573
:102150002105310508F4C3C06093B5047093B6043B
:102160008093B7049093B8044092AF055092B005A5
:102170006092B1057092B2051092B3051092B40549
:102180001092B5051092B6058091A7059091A8050B
:10219000A091A905B091AA058093AB059093AC05D9
:1021A000A093AD05B093AE050E947A036093A70596
:1021B0007093A8058093A9059093AA0589EB94E0F4
:1021C0000E94AD01843609F4B0D90E947A0360936D
:1021D000A3057093A4058093A5059093A6050E947E
:1021E0007A036B017C018DE892E03BD94AE061E023
:1021F00070E080E090E056D984E992E032D94AE07C
:10220000C701B6014FD986E992E02BD98091A70585
:102210009091A805A091A905B091AA05A7019601E2
:10222000281B390B4A0B5B0BCA01B9014AE03AD9AA
:1022300086E992E016D96091A7057091A805809172
:10224000A9059091AA050091AB051091AC052091CC
:10225000AD053091AE05601B710B820B930B4AE00C
:1022600021D988E992E0FDD80E947A034AE01AD980
:102270008AE992E0F6D88EE292E0F3D80E947A03DF
:102280006B017C014B015C0132E0830E911CA11CAF
:10229000B11C0E947A036C157D058E059F0528F000
:1022A00086169706A806B906A0F789EB94E00E9467
:1022B000AD01843609F439D90E947A036093A705E9
:1022C0007093A8058093A9059093AA0508C00E9461
:1022D0007A03623071058105910508F017CFE0910E
:1022E000B304F091B404008111810115110509F1C5
:1022F000D8016D917C916F5F7F4F1A8219821C8289
:102300001B821E821D82CE01019625DACE01019626
:10231000B5D8CE01019678DAF80102811381E5CFB4
:102320006093B5047093B6048093B7049093B80497
:10233000FDCEA090B104B090B204D501ED91FC9116
:1023400086819781892B09F451C00E947A03D501B7
:10235000ED91FC91E084F184F701C080D180D60139
:102360000D911C911197F8012481358150E040E0D6
:10237000261737074807590700F7C114D10479F425
:102380007801D701ED91FC910190F081E02DC7011A
:102390001995E114F10489F2C7016AD1CECF1296E2
:1023A0008D919C91F701918380830115110541F076
:1023B000D8018D919C91009709F05AD1C80158D14C
:1023C000C60156D1F701868197810197978386834D
:1023D000D801ED90FC900115110599F2E114F1047A
:1023E00011F0C70145D1C80143D1CBCF0E945D0296
:1023F00086CEFC0188279927E89421912032E9F3C1
:10240000293010F02E30C8F32B3239F02D3231F450
:10241000689403C015D0820F911D219120532A305A
:10242000C8F31EF4909581959F4F0895BB274A30BD
:1024300031F4992322F4BDE2909581959F4F2AC0F3
:102440007AE0979F902D879F802D910D11240895FC
:10245000BB27FA01A62F6217710581059105330B81
:1024600030FB66F0AA27660F771F881F991FAA1FE7
:10247000A21710F0A21B63953850A9F7A05DAA33EC
:1024800008F0A95DA19336F7B111B1931082CA018A
:1024900019C0BB27FB015527AA27880F991FAA1F20
:1024A000A41710F0A41B83955051B9F7A05DAA336F
:1024B00008F0A95DA193009779F7B111B19311923A
:1024C000CB0100C0DC01FC01672F71917723E1F79C
:1024D000329704C07C916D9370836291AE17BF07F1
:1024E000C8F30895A1E21A2EAA1BBB1BFD010DC063
:1024F000AA1FBB1FEE1FFF1FA217B307E407F507B4
:1025000020F0A21BB30BE40BF50B661F771F881F8F
:10251000991F1A9469F760957095809590959B0125
:10252000AC01BD01CF010895EE0FFF1F881F8BBFC7
:102530000790F691E02D19940F931F93CF93DF939B
:102540008230910510F482E090E0E091E905F0918D
:10255000EA0530E020E0B0E0A0E0309799F42115E2
:10256000310509F44AC0281B390B24303105D8F550
:102570008A819B816115710589F1FB0193838283B7
:10258000FE0111C040815181028113814817590712
:10259000E0F04817590799F4109761F012960C93E0
:1025A000129713961C933296CF01DF91CF911F9112
:1025B0000F9108950093E9051093EA05F4CF2115D2
:1025C000310551F04217530738F0A901DB019A0198
:1025D000BD01DF01F801C1CFEF01F9CF9093EA050A
:1025E0008093E905CDCFFE01E20FF31F8193919314
:1025F0002250310939832883D7CF2091E7053091C4
:10260000E805232B41F42091060230910702309314
:10261000E8052093E7052091040230910502211579
:10262000310541F42DB73EB740910802509109029F
:10263000241B350BE091E705F091E805E217F3075D
:10264000A0F42E1B3F0B2817390778F0AC014E5F22
:102650005F4F2417350748F04E0F5F1F5093E80572
:102660004093E705819391939FCFF0E0E0E09CCF0A
:10267000CF93DF930097E9F0FC0132971382128227
:10268000A091E905B091EA05ED0130E020E0109756
:10269000A1F420813181820F931F2091E7053091B1
:1026A000E8052817390709F061C0F093E805E093C1
:1026B000E705DF91CF910895EA01CE17DF07E8F52E
:1026C0004A815B819E0141155105B1F7E901FB8308
:1026D000EA8349915991C40FD51FEC17FD0761F4A6
:1026E000808191810296840F951FE90199838883E7
:1026F000828193819B838A83F0E0E0E012968D9142
:102700009C9113970097B9F52D913C911197CD01AC
:102710000296820F931F2091E7053091E805281754
:10272000390739F6309751F51092EA051092E9050C
:10273000B093E805A093E705BCCFD383C283408163
:102740005181840F951FC817D90761F44E5F5F4F01
:1027500088819981480F591F518340838A819B81C9
:10276000938382832115310509F0B0CFF093EA05F8
:10277000E093E9059ECFFD01DC01C0CF13821282F8
:10278000D7CF4F925F926F927F928F929F92AF922C
:10279000BF92CF92DF92EF92FF920F931F93CF934E
:1027A000DF938C01009791F4CB01DF91CF911F91C2
:1027B0000F91FF90EF90DF90CF90BF90AF909F90E0
:1027C0008F907F906F905F904F90B6CEFC01E60F98
:1027D000F71F9C0122503109E217F30708F4AAC041
:1027E000D901CD91DC911197C617D70718F1C530E3
:1027F000D10570F0CE0104978617970748F0C61BE5
:10280000D70B2297C193D1936D937C93CF0130DF87
:10281000C801DF91CF911F910F91FF90EF90DF9052
:10282000CF90BF90AF909F908F907F906F905F9070
:102830004F9008955B01AC1ABD0A4C018C0E9D1E91
:10284000A091E905B091EA05512C412CF12CE12C25
:10285000109731F58091E7059091E8058815990565
:1028600009F05CC04616570608F058C08091040273
:1028700090910502009741F48DB79EB740910802F0
:1028800050910902841B950BE817F90708F052C014
:10289000F093E805E093E705F90171836083B8CF11
:1028A0008D919C91119712966C90129713967C9033
:1028B0001397A815B90559F56C0142E0C40ED11C57
:1028C000CA14DB0420F1AC014A195B09DA01129643
:1028D000159780F06282738251834083D9016D9392
:1028E0007C93E114F10471F0D7011396FC93EE93FD
:1028F00012978ECF22968C0F9D1FF90191838083B2
:10290000F301EFCFF093EA05E093E90581CF481694
:10291000590608F42C017D01D3019ACFCB010CDEBE
:102920007C01009739F0AE01B80107D0C801A0DEE4
:1029300087016ECF10E000E06BCFFB01DC0102C02D
:1029400001900D9241505040D8F70895FB01DC01F1
:0E29500001900D920020E1F70895F894FFCF5A
:10295E00FFFFFFFF0000EB05800000000000D70C1A
:10296E0000000000F2015D018A013E02BB019901E7
:10297E00AD0100000000C2085D016E08300A0D0AAC
:10298E0000506F6365742073656E7A6F726F762078
:10299E0000202000202C00506F636574207461733A
:1029AE006B6F76203A2000564D4450565F317C3185
:1029BE005F564D4450560A00564D4450525F00200B
:1029CE004F62797661636B6120004F627976616345
:1029DE006B61004D6F6A6120497A626100564D4409
:1029EE0050455F003A323A007C005F564D445045E8
:0229FE000000D7
:00000001FF
